:020000040800F2
:10000000C806002061010008C7130008C5130008D6
:1000100000000000000000000000000000000000E0
:10002000000000000000000000000000CB130008EA
:100030000000000000000000C9130008CD130008F4
:1000400073010008730100087301000873010008C0
:1000500073010008730100087301000873010008B0
:1000600073010008730100087301000873010008A0
:1000700073010008D9130008730100087301000818
:100080007301000873010008730100087301000880
:100090007301000873010008730100087301000870
:1000A0007301000873010008730100087301000860
:1000B00073010008730100087301000800F002F8E2
:1000C00000F03EF80CA030C8083824182D18671E20
:1000D000A246AB4654465D46AC4201D100F030F832
:1000E0007E460F3EB6460FCC0126334200D0FB1AA7
:1000F0003343A246AB461847601700008017000044
:10010000103A02D378C878C1FAD8520701D330C860
:1001100030C101D504680C60704700000023002442
:1001200000250026103A01D378C1FBD8520700D32E
:1001300030C100D50B6070471FB51FBD10B510BD95
:1001400000F04DF81146FFF7F7FF01F051F900F00C
:1001500065F803B4FFF7F2FF03BC00F06BF8000092
:100160000748804707480047FEE7FEE7FEE7FEE74F
:10017000FEE7FEE704480549054A064B70470000C4
:10018000D5130008BD000008C8000020C8060020E4
:10019000C8020020C802002001E004C0091F042991
:1001A000FBD28B0701D50280801CC90700D00270EA
:1001B000704700290BD0C30702D00270401C491EB3
:1001C000022904D3830702D50280801C891EE3E73D
:1001D0000022EEE70022DFE7704770477047754660
:1001E00000F024F8AE46050069465346C008C0003A
:1001F000854618B020B5FFF7BDFF60BCB6460026A7
:100200000027C0C5C0C5C0C5C0C5C0C5C0C5C0C524
:10021000C0C5403D490849008D46704710B50446A9
:10022000C046C0462046FFF794FF10BD0048704707
:100230001000002001491820ABBEFEE72600020096
:100240007047EFF3108072B6FEE70000B0B50446C9
:1002500000F0FEF80546601C02D09F4800780419A3
:1002600000F0F6F8401BA042FAD3B0BDF0B58CB058
:100270000B916A4A904201D0052200E003220092CD
:100280000B990F68002F00D1C6E0012300263546E8
:100290000293099608960A9013E03A436148026077
:1002A0000A980B9A17683A46DA40361D08355B1CE7
:1002B0000999891C09910899491C0891002A00D1C3
:1002C000AAE0591E029C07918C402740E9D0069570
:1002D00005960B9A516803260D4635406A1E012A81
:1002E00004911BD8032209998A400A988068904398
:1002F0000B9EF6688E4006430A9886600498C006F6
:10030000C00F079988400A9E7668A64306430A985C
:100310004660D4430A98089949000BE0324609998F
:100320008A40D443032D05D1099903913546059E92
:10033000049923E0C268019422400B9CA4688C407D
:100340001443C460022D039115D11C20059E30403A
:100350000F2282400799CC08A4000A9D2C19256A17
:1003600095430B990A6982402A4322620A98496898
:1003700003250D4001E0059E0499019C039A9540D8
:10038000026822402A4302608A03920F069D88D0A9
:10039000182028400F2585400322079991430A9A87
:1003A0001F4C6618346EAC43603605252D07AA42F3
:1003B00008D01D4DAA4207D01C4DAA42009D04D171
:1003C000022502E0002500E0012585402543356037
:1003D000134802680B984068C40201D53A4300E014
:1003E000BA43059E069D0E4C22606268840201D5C8
:1003F0003A4300E0BA430A4C62600A4A52688403F6
:1004000001D53A4300E0BA43064C62602268C0035B
:1004100000D542E7BA4341E70CB0F0BD000C0050F4
:1004200000180240801802400004005000080050EC
:1004300042690B4693430A401104C9188161704711
:10044000002A02D01822815070472822815070471C
:10045000054800687047C0461F48007802490A688E
:10046000101808607047C046C4000020B0B50124D1
:10047000200208490A6802430A600025284600F065
:100480000BF8002801D02046B0BD00F027F82C461C
:100490002046B0BD0020024070B50F4E31780124D7
:1004A000002916D005467D20C00001F0B9F80146AC
:1004B0004948006801F0B4F800F0CEFC032D08D8DC
:1004C000002806D10024E0432946224600F028F8FF
:1004D0007560204670BDC0460000002082B009480B
:1004E0004168012211434160416811400191019925
:1004F000110702680A4302600068084000900098F3
:1005000002B070473C100240002805D41F2108406B
:1005100001218140014801607047C04600E100E0D0
:10052000002805D40322034693430C4A9A1806E098
:100530000F220240083A03239A43074BD218800740
:10054000C00E8901C9B28140FF23834010689843DF
:10055000084310607047C0461CED00E000E400E076
:10056000F0B581B0032569021A4E3246143A136879
:100570008B4303431360012461020022884226D189
:10058000154801683068400521D50092A702062071
:100590004843124901F044F8201A022816D0316865
:1005A00039420FD0012811D0316839420AD00028D1
:1005B0000CD03168394205D0001D032806D03168BF
:1005C0003942EAD1009A104601B0F0BD2A461046E1
:1005D00001B0F0BD147000400800002040420F0040
:1005E000F0B587B0817889077F4F01D4002651E0AC
:1005F0000590012319073A46183A106808400490FC
:1006000006D11068084310601068084006900698EC
:100610000292039101931E02744C206830432060C3
:10062000FFF716FF0546206830420AD1FFF710FF9A
:10063000401B0228F7D9032605980499002924D0E5
:1006400028E0032005460102B868084012D0059949
:10065000096B88420BD0B86801990904BA680A434B
:10066000BA60BA688A43BA6061490840B860C00796
:1006700000D0A5E0BA685E4802400598016B1143BE
:10068000B96000260499002904D1029B1968039AD5
:10069000914319600568E9070DD1A90713D4E9064C
:1006A00019D4A90520D4690527D4A9062ED401217F
:1006B0006A0435D443E039680322914342680A430F
:1006C0003A60A907EBD539680C22914382680A4346
:1006D0003A60E906E5D5032189023A688A43C16890
:1006E00011433960A905DED5032189043A688A439C
:1006F0008169114339606905D7D5032109053A6835
:100700008A43C16911433960A906D0D50321090381
:100710003A688A4301691143396001216A040ED5A0
:100720003A68344B1A40046A22433A605A1C944295
:1007300005D10A043B46483B1C6814431C602A034D
:1007400005D53A6840239A43436A13433B608A05C0
:10075000AB0212D53B689343846A23433B609442C7
:100760000BD10B0604933C46483C05903046266866
:10077000049B1E4326600646059815420CD00A06C7
:100780003B689343C46A23433B60944204D13B4695
:10079000483B1C6814431C602A050ED58C030322B9
:1007A00092033B689343426913433B60A24204D1E6
:1007B0000804483F396801433960304607B0F0BD4E
:1007C000FFF746FE0646874CB868800700D551E71C
:1007D000FFF73EFE801BA042F6D905982E460499ED
:1007E000002900D151E755E7541002400070004045
:1007F000FFFCFFFFFFFFFF3FF0B583B00D46012177
:1008000000281BD001910290754800680724204001
:10081000A84216D272490868A04328430860714E66
:10082000FFF716FE07466E4800682040A84208D031
:10083000FFF70EFEC01BB042F5D90321084603B0F6
:10084000F0BD029E30688107674B0CD5410703D588
:1008500021031A680A431A600F2109021A688A43A1
:10086000B16811431960C0071BD15D480068204082
:10087000A8422CD95A490868A04328430860594F18
:10088000FFF7E6FD0646564800682040A8421ED005
:10089000FFF7DEFD801BB842F5D90321084603B0FF
:1008A000F0BD0298406803285DD8810001A251582C
:1008B0008F46C046C50800086B0900087509000886
:1008C0007F090008194608390968490559E0029A64
:1008D00010784007444B05D5200319688143D06840
:1008E0000843186018688006400F22D01A68382123
:1008F0000A403E48082A23D01A680A40102A5ED1CE
:10090000596803220A40032A00D039485968490629
:10091000490F491C00F084FE334949684904490ED7
:10092000484331494968490F491C00F079FE2E4B74
:1009300006E01846083800688004410F2C48C8407B
:10094000196889093C220A402A4989581F220A400D
:10095000D0402949086029480068FFF79DFD0146FD
:10096000084603B0F0BD596D0AE019460839096818
:10097000890306E0194608390968890101E0996D83
:100980008907019900D459E71968A1430143196007
:10099000144FFFF75DFD06461348006838210140FB
:1009A00002984068C000814200D15EE7FFF750FD29
:1009B000801BB842F0D90321084603B0F0BD186887
:1009C0000840202802D10120C003B9E71868084078
:1009D000182801D00020B3E77D200002B0E7C04610
:1009E00000200240881300000810024000127A0024
:1009F0000024F4001818000808000020040000205B
:100A0000F0B587B00125002800D1F9E104950590E3
:100A10000078C007FC4F2AD0B868F96803252A4639
:100A20008A433821014010204840821850425041EA
:100A3000082914D0002812D1059842680120010429
:100A40008A4208D005231B049A4200D005E18204A3
:100A50003B6813433B603A680A433A6006E13868F2
:100A6000800304D505984068002800D150E105981E
:100A70000078800716D405980078000745D4059AB9
:100A8000107840074ED4D469002C00D19EE1B8689C
:100A900038210140102900D0B6E0012C00D010E12F
:100AA000049DADE1B9683820084010214140FA6842
:100AB0000326324002235340CA18514251410125B6
:100AC000AC0200283AD0002938D13868059AD1689C
:100AD000002900D1D8E00721C902884311690143E8
:100AE00039602802396801433960FFF7B1FC0546D7
:100AF0003868204200D0DAE0FFF7AAFC401B022849
:100B0000F6D93546284607B0F0BDB868382101400F
:100B100018293BD1386E8007B1D505988069002827
:100B2000ADD1F5E0B86838210140202945D1F86DF4
:100B30008007A8D590680028A5D1E9E0396821424E
:100B4000059B03D0D968002900D159E17F21090212
:100B50007A688A43596909021143796000280DD1E6
:100B60000720C00239688143186908433860386833
:100B70008004400FB149C140B1480160B1480068EC
:100B8000FFF78AFC002800D03AE174E7386E059937
:100B90008969002900D1CAE0012108433866FFF7BE
:100BA00057FC0646386E800700D568E7FFF750FC13
:100BB000801B03250228F5D922E1012003900107BB
:100BC000F86B0840029006D1F86B0843F863F86BA5
:100BD00008400690069801919B480068C0052BD4F8
:100BE000039804029849086820430860FFF730FC26
:100BF00006469548006820421ED1FFF729FC801B5D
:100C000003250228F5D9FBE001252906386804915F
:100C100088433860FFF71CFC0646022C7CD1039504
:100C20006C063868204200D1A0E0FFF711FC801B61
:100C300003250228F5D9E3E005988068834C012854
:100C400006D0052800D0C5E0F86D04210143F96500
:100C5000F86D03990843F865C6E03B688B433B6039
:100C600081043B688B433B60002A71D04404FFF74A
:100C7000EFFB06463868204200D0F8E6FFF7E8FBB5
:100C8000801B6428F6D9BBE0290288433860FFF74F
:100C9000DFFB05463868204200D1ECE6FFF7D8FBC1
:100CA000401B0228F6D93546284607B0F0BD7F2004
:100CB0000002796881430598406900020843786022
:100CC000D9E6F86803210140059B1A6A91421FD1B9
:100CD000702101405A6A91421AD17F2109020140D4
:100CE0009A6A1202914213D11F2149040140DA6A23
:100CF00091420DD107214A0602401C461B6B9A42C5
:100D0000049D7DD149070840616B884278D15DE040
:100D1000049D284607B0F0BD6C063868204251D0CB
:100D2000FFF796FB801B03250228F6D968E0012116
:100D300088433866FFF78CFB0646386E800700D480
:100D40009DE6FFF785FB801B03250228F5D957E0B8
:100D50004404FFF77DFB06463868204200D186E652
:100D6000FFF776FB801B6428F6D949E0F86839491B
:100D700001400598026A456A836AC66A0196066B55
:100D80000296406B0A432A4319021143019A114308
:100D9000029A11430143F9603868049908433860A6
:100DA00003980007F9680143F960FFF751FB064615
:100DB000386820420AD1FFF74BFB801B032502282D
:100DC000F6D91DE0F86822490140F960002528465F
:100DD00007B0F0BDF96D039A9143F965F96D0422EE
:100DE0009143F965002811D0FFF732FB0646F86DF4
:100DF000800718D4FFF72CFB801B0325A042F6D9EF
:100E0000284607B0F0BDC04600100240FFF720FBA7
:100E10000646F86D800706D5FFF71AFB801B0325F1
:100E2000A042F6D9ECE702980028059A00D02AE6FD
:100E3000F86B01998843F86325E6C0460024F40066
:100E4000080000200400002000700040881300000B
:100E5000FCFFFEEE8C80C111401E010E01D001206E
:100E600070470749074A5060074803680B40032151
:100E700089075918016000209060072111607047B0
:100E8000FFFFFF0010E000E020ED00E0704770473A
:100E90007047000070B53C22825C012A01D102201B
:100EA00070BD02463C320223537000684568836877
:100EB0007F4CA04201D02E4604E00F263605B543F4
:100EC0004E682E437025AE430D6835434560764D20
:100ED000A84205DC0124A407A04206D0754C02E01C
:100EE000724DA84201D0A04204D18024A343896856
:100EF00019438160002010700121517070BDC046FF
:100F000070B5002829D0044605463C35687800288D
:100F100004D100202870204600F06AF80220687092
:100F200021680E6801208307994205D0604A9142EA
:100F300002D0604A914219D170229643A26832438E
:100F4000594EB14216DD254B994208DC584B994267
:100F500018D0564B994215D03EE0012070BD204B71
:100F600099420FD01F4B99420CD035E032464E4E7D
:100F7000B142E8DC994205D04E4B994202D01A4B5F
:100F8000994229D103231B029A43236913438022E8
:100F90009343A2691A430A60E268CA6262688A627D
:100FA000124A8A180A23DA41072A06D803469340D0
:100FB000E122134201D062690A6348612873A87074
:100FC000E87028716871A871E87128726872A87257
:100FD000E8726870002070BD1346D8E7FF430140F7
:100FE00000480140004401400020004000D4FEBF02
:100FF00010B58EB0044601A8001D3021FFF7EAF8B5
:1010000020682B49884201D00EB010BD0124600534
:10101000019001A8FFF7E4FA002801D0FFF711F9C9
:10102000E00209490A6802430A6009680140009128
:1010300000980D24002120460A46FFF771FA204649
:10104000FFF762FA0EB010BD4010024010B53D210E
:10105000415C012912D101463D3102220A7001682A
:10106000C86801221043C8600F48814208DC90071D
:1010700081420BD00F48814208D010E0012010BD02
:101080000A48814202D00A48814208D188680A4B46
:1010900003400020062B06D01404A34203D00868A6
:1010A00010430860002010BDFF2B014000400140AC
:1010B000002C0140000400400700010010B5026848
:1010C000D36801218B43D360136A094C234203D0B8
:1010D0003D228154002010BD136A064C2342F7D1F3
:1010E00013688B4313603D228154002010BDC0461D
:1010F0001111000044040000F0B53C22825C012A7A
:1011000001D10220F0BD02463C3202235370046834
:10111000A0684E4B0340A3600D6800234F2D1EDCDA
:101120001F2D37DD202D39D0302D37D0402D00D068
:1011300087E0206A256A0126B5432562A569F02665
:10114000B543CE6836012E43A6610A25A8434968F7
:1011500001432162A0683E49014047316BE06F2D99
:1011600028DD01204603B54240D0000385421846E1
:101170001CD0702D65D1FF200002A568854348680A
:101180008E68C9680643080230432843A060A068FF
:10119000772139E0002D01D0102D52D1A0682C49C3
:1011A00001400D4307202843A06018461370012119
:1011B0005170F0BD502D29D0602D42D1206A1025EC
:1011C000A84320620F200003A5698543C868000377
:1011D0002843256AA061A020854348680001284370
:1011E0002062A0681A490140673124E0FF252D02E2
:1011F000A668AE434D688F68C9682F43090239431A
:101200003143A1608003A168014314E0206A256A8C
:101210000126B5432562A569F026B543CE6836019F
:101220002E43A6610A25A843496801432162A068AC
:10123000074901405731A1601846137001215170D0
:10124000F0BD0120137001215170F0BD8800CEFF68
:1012500088FFCFFF70470000B0B504460068016901
:101260008907554D17D5C168890714D52946FE3120
:101270000161012121778069800703D02046FFF7B3
:10128000E9FF05E0204600F099F8204600F097F8C5
:101290000020207720680169490718D5C1684907EF
:1012A00015D52946FC31016102212177806980052D
:1012B000800F03D02046FFF7CDFF05E0204600F069
:1012C0007DF8204600F07BF8002020772068016937
:1012D000090717D5C168090714D52946F8310161F6
:1012E00004212177C069800703D02046FFF7B2FFB1
:1012F00005E0204600F062F8204600F060F800208B
:10130000207720680169C90618D5C168C90615D5B6
:101310002946F031016108212177C0698005800FDD
:1013200003D02046FFF796FF05E0204600F046F880
:10133000204600F044F80020207720680169C907A2
:1013400009D0C168C90706D02946FF31016120468E
:1013500000F036F820680169090609D5C168090658
:1013600006D52946803101612046FFF790FD2068AF
:101370000169C90507D5C168090604D5056120467C
:10138000FFF784FD20680169490609D5C16849064F
:1013900006D52946C0310161204600F012F82068C8
:1013A0000169890607D5C168890604D5E03505615C
:1013B0002046FFF76DFDB0BDFFFEFFFF7047704791
:1013C00070477047FEE7FEE77047704780B5FFF74C
:1013D00043F880BD7047000080B5034801210170CB
:1013E0000248FFF739FF80BD71000020780000201F
:1013F00096B0FFF73BF800240E940D940C940B94D8
:101400000A94099401277802FFF7AAF87807159043
:1014100078061490780413900820129011940226F4
:1014200010960F9640200D900C9438020B90089661
:1014300008A8FFF7E5FA002803D0EFF3108072B692
:10144000FEE70794069407200490059604A8314609
:10145000FFF7D2F9002803D0EFF3108072B6FEE751
:101460006948016804221143016001681140089134
:101470000899016820252943016002682A4029460D
:1014800002950892089A02683A43026002683A405C
:101490000892089A0268324302600068304008905F
:1014A000089805200507284601952246FEF7C8FF43
:1014B0005648382103912246FEF7C2FF0C970B9441
:1014C0000A9409960C20089008A928460D46FEF7B4
:1014D000CDFE0B960A940997029808900198294628
:1014E000FEF7C4FE0B940A940997039808904748A6
:1014F0002946FEF7BBFE464E46483F21464AB260AB
:10150000F16034617061B461F46134620B940A94E7
:101510000994354608352846FFF7F2FC002803D029
:10152000EFF3108072B6FEE73803089008A928464A
:10153000FFF7E2FD002803D0EFF3108072B6FEE75C
:1015400006940594049404A92846FFF7A3FC0028F8
:1015500003D0EFF3108072B6FEE703952846FFF73D
:1015600075FD20210127294D28463A46FEF768FFE0
:101570000821284602973A46FEF762FF0220FEF74E
:1015800065FE70780028FCD074703078401C307094
:10159000307824280CD00C281AD00128F1D1102141
:1015A00001222846FEF74CFF7088401C7080E8E757
:1015B0003470B0881949098849008842E1D10398FC
:1015C000FFF77CFD082100222846FEF739FFD8E707
:1015D0001021002728463A46FEF732FF1920000165
:1015E00071888142CDD17780B088401CB080B088AE
:1015F0000A4909888842C4D10298F08020212846EF
:10160000FEF716FFBDE7C04634100240000400504C
:1016100070000020E7030000002C01400C000020B7
:1016200043088B421AD3002203098B4279D3030A61
:101630008B425ED3030B8B4242D3030C8B4227D3E6
:101640000902FF2212BA030C8B4202D312120902C2
:1016500003D0030B8B4233D31AE0D3E0411A80410D
:10166000401C704703460B4371D443088B42F5D3AB
:10167000002203098B4254D3030A8B4239D3030B54
:101680008B421DD3030C8B4202D394466EE0090AB1
:10169000C30B8B4201D3CB03C01A5241830B8B4245
:1016A00001D38B03C01A5241430B8B4201D34B032E
:1016B000C01A5241030B8B4201D30B03C01A524193
:1016C000C30A8B4201D3CB02C01A5241830A8B4218
:1016D00001D38B02C01A5241430A8B4201D34B0201
:1016E000C01A5241030A8B4201D30B02C01A524165
:1016F000CDD2C3098B4201D3CB01C01A5241830919
:101700008B4201D38B01C01A524143098B4201D352
:101710004B01C01A524103098B4201D30B01C01A7D
:101720005241C3088B4201D3CB00C01A52418308F7
:101730008B4201D38B00C01A524143088B4201D324
:101740004B00C01A5241411A524110007047CA0F53
:1017500000D04942031000D34042534000229C462F
:1017600003098B422DD3030A8B4212D38901FC2239
:1017700012BA030A8B420CD3890192118B4208D30F
:10178000890192118B4204D3890137D0921100E074
:101790008909C3098B4201D3CB01C01A5241830985
:1017A0008B4201D38B01C01A524143098B4201D3B2
:1017B0004B01C01A524103098B4201D30B01C01ADD
:1017C0005241C3088B4201D3CB00C01A5241830857
:1017D0008B4201D38B00C01A5241D9D243088B42AD
:1017E00001D34B00C01A5241411A00D20146524166
:1017F000104663465B1000D34042704763465B105F
:1018000000D3404201B50021004201D0C94308463F
:10181000C046C04602BD00000000000000000000FD
:1018200000000000000000000000000000000000B8
:1018300000000000000000000100000002000000A5
:101840000300000004000000060000000700000084
:1018500008000000090000007818000800000020BF
:101860001000000000010008881800081000002087
:10187000B80600001C010008010000000400000080
:081880000024F4000A0000003E
:04000005080000BD32
:00000001FF
